:020000040000FA
:10000000000000EB240000EB2C008FE2000C90E8D5
:1000100000A08AE000B08BE001704AE20B005AE1D8
:100020000000001A1C0000EB0F00BAE818E04FE2D5
:10003000010013E303F0471013FF2FE1F801000064
:10004000080200000030B0E30040B0E30050B0E32D
:100050000060B0E3102052E27800A128FCFFFF8A84
:10006000822EB0E13000A128003081451EFF2FE133
:1000700001C08FE21CFF2FE11FB5059886460FBC1B
:10008000009C02B07047000001C08FE21CFF2FE10E
:1000900030B47546AE4630BC704700001A0000EB25
:1000A0000210A0E1F1FFFFEB1CC09FE50FC08CE048
:1000B00001001CE30DE08F120FE0A0011CFF2FE1F7
:1000C00001C08FE21CFF2FE100F050F8F0000000AB
:1000D0007847C04603002DE9EAFFFFEB0300BDE8C7
:1000E000290000EB0C009FE50C109FE504209FE524
:1000F00008309FE51EFF2FE16000004060040040D3
:100100006000004070477047704700000E50A0E14B
:100110001A0000EB05E0A0E10050B0E10D10A0E1F5
:100120000A30A0E10700C0E300D0A0E160D08DE27A
:1001300020402DE9EAFFFFEB2040BDE80060A0E38E
:100140000070A0E30080A0E300B0A0E30710C1E3CB
:1001500005C0A0E1C009ACE8C009ACE8C009ACE842
:10016000C009ACE801D0A0E11EFF2FE110B50400EA
:10017000C046C0462000FFF7ABFF10BC08BC1847C4
:1001800000009FE51EFF2FE10000004001C08FE24C
:100190001CFF2FE101491820ABDFFEE7260002001B
:1001A0001EFF2FE178009FE578109FE5000081E5B4
:1001B0000108A0E34011C1E1080081E5C000C1E1F0
:1001C000B000D0E1400080E3021941E2B000C1E19B
:1001D000120000EA0000A0E14C109FE50410D1E5F8
:1001E000801001E2000051E3FAFFFF0A38109FE59A
:1001F000B810D1E1FF0001E2420050E30300001A11
:100200000118A0E324209FE5041082E5020000EA23
:100210000118A0E314209FE50C1082E50000A0E186
:10022000EBFFFFEA0515000000C002E0000002E05D
:10023000008002E04402000000000040E8040000EA
:040240004400000076
:0400000500000000F7
:00000001FF
